{"abi":[{"type":"constructor","inputs":[{"name":"verifierAddress","type":"address","internalType":"address"}],"stateMutability":"nonpayable"},{"type":"function","name":"balances","inputs":[{"name":"","type":"address","internalType":"address"}],"outputs":[{"name":"","type":"uint256","internalType":"uint256"}],"stateMutability":"view"},{"type":"function","name":"consumedDecision","inputs":[{"name":"","type":"bytes32","internalType":"bytes32"}],"outputs":[{"name":"","type":"bool","internalType":"bool"}],"stateMutability":"view"},{"type":"function","name":"depositWithDecision","inputs":[{"name":"proof","type":"bytes","internalType":"bytes"},{"name":"publicInputs","type":"bytes","internalType":"bytes"},{"name":"assets","type":"uint256","internalType":"uint256"}],"outputs":[],"stateMutability":"nonpayable"},{"type":"function","name":"verifier","inputs":[],"outputs":[{"name":"","type":"address","internalType":"contract IZKCGVerifier"}],"stateMutability":"view"},{"type":"event","name":"DecisionConsumed","inputs":[{"name":"decisionId","type":"bytes32","indexed":true,"internalType":"bytes32"}],"anonymous":false},{"type":"event","name":"DepositAccepted","inputs":[{"name":"decisionId","type":"bytes32","indexed":true,"internalType":"bytes32"},{"name":"depositor","type":"address","indexed":true,"internalType":"address"},{"name":"assets","type":"uint256","indexed":false,"internalType":"uint256"}],"anonymous":false},{"type":"error","name":"DecisionAlreadyConsumed","inputs":[{"name":"decisionId","type":"bytes32","internalType":"bytes32"}]},{"type":"error","name":"InvalidZKCGProof","inputs":[]},{"type":"error","name":"UnexpectedPayloadHash","inputs":[{"name":"expected","type":"bytes32","internalType":"bytes32"},{"name":"actual","type":"bytes32","internalType":"bytes32"}]},{"type":"error","name":"UnexpectedPolicyVersion","inputs":[{"name":"expected","type":"bytes32","internalType":"bytes32"},{"name":"actual","type":"bytes32","internalType":"bytes32"}]}],"bytecode":{"object":"0x60a060405234801561000f575f80fd5b5060405161074c38038061074c83398101604081905261002e9161009b565b806001600160a01b0381166100895760405162461bcd60e51b815260206004820152601360248201527f7a6b63673a207a65726f20766572696669657200000000000000000000000000604482015260640160405180910390fd5b6001600160a01b0316608052506100c8565b5f602082840312156100ab575f80fd5b81516001600160a01b03811681146100c1575f80fd5b9392505050565b6080516106666100e65f395f8181609a015261020a01526106665ff3fe608060405234801561000f575f80fd5b506004361061004a575f3560e01c80630b1bf5d01461004e57806327e235e3146100635780632b7ac3f314610095578063aa45f910146100d4575b5f80fd5b61006161005c3660046104aa565b610106565b005b610082610071366004610518565b60016020525f908152604090205481565b6040519081526020015b60405180910390f35b6100bc7f000000000000000000000000000000000000000000000000000000000000000081565b6040516001600160a01b03909116815260200161008c565b6100f66100e2366004610545565b5f6020819052908152604090205460ff1681565b604051901515815260200161008c565b60408051306020808301919091523382840152606080830185905283518084039091018152608090920190925280519101205f9061016d9087908790879087907f84670f18a20b1c359f5cbabf0932045d151709f443825bad874f1da2bd20ac3f906101d5565b335f9081526001602052604081208054929350849290919061019090849061055c565b909155505080516040518381523391907fe9d7a494c160fc95339d7943308baec6bc87e0196dda35e7138032b1dac8ef5e9060200160405180910390a3505050505050565b6040805160a0810182525f80825260208201819052818301819052606082018190526080820152905163d333fa4760e01b81527f00000000000000000000000000000000000000000000000000000000000000006001600160a01b03169063d333fa479061024d908a908a908a908a906004016105a9565b602060405180830381865afa158015610268573d5f803e3d5ffd5b505050506040513d601f19601f8201168201806040525081019061028c91906105da565b6102a95760405163ecab6b8b60e01b815260040160405180910390fd5b6102b385856103a8565b80515f9081526020819052604090205490915060ff16156102f25780516040516315b58f8360e01b815260048101919091526024015b60405180910390fd5b82816020015114610326576020810151604051636f3f93b360e11b81526102e9918591600401918252602082015260400190565b8181606001511461035a576060810151604051630a56add960e31b81526102e9918491600401918252602082015260400190565b80515f90815260208190526040808220805460ff191660011790558251905190917fdd3452229fdad8316d90d048e986f352d84de6228de6ac1fcf7347f1963e4da991a29695505050505050565b6040805160a0810182525f8082526020820181905291810182905260608101829052608081019190915260a082146104225760405162461bcd60e51b815260206004820152601d60248201527f7a6b63673a206d616c666f726d6564207075626c696320696e7075747300000060448201526064016102e9565b5f80808080610433878901896105f9565b6040805160a0810182529586526020860194909452928401919091526060830152608082015298975050505050505050565b5f8083601f840112610475575f80fd5b50813567ffffffffffffffff81111561048c575f80fd5b6020830191508360208285010111156104a3575f80fd5b9250929050565b5f805f805f606086880312156104be575f80fd5b853567ffffffffffffffff808211156104d5575f80fd5b6104e189838a01610465565b909750955060208801359150808211156104f9575f80fd5b5061050688828901610465565b96999598509660400135949350505050565b5f60208284031215610528575f80fd5b81356001600160a01b038116811461053e575f80fd5b9392505050565b5f60208284031215610555575f80fd5b5035919050565b8082018082111561057b57634e487b7160e01b5f52601160045260245ffd5b92915050565b81835281816020850137505f828201602090810191909152601f909101601f19169091010190565b604081525f6105bc604083018688610581565b82810360208401526105cf818587610581565b979650505050505050565b5f602082840312156105ea575f80fd5b8151801515811461053e575f80fd5b5f805f805f60a0868803121561060d575f80fd5b50508335956020850135955060408501359460608101359450608001359250905056fea2646970667358221220e848ff4e5731700f0eb7d1601d9c1aa73612eeb287e14c1ecac8439a8d36be3c64736f6c63430008140033","linkReferences":{}},"methodIdentifiers":{"balances(address)":"27e235e3","consumedDecision(bytes32)":"aa45f910","depositWithDecision(bytes,bytes,uint256)":"0b1bf5d0","verifier()":"2b7ac3f3"},"id":1}