{"abi":[{"type":"constructor","inputs":[{"name":"signer","type":"address","internalType":"address"}],"stateMutability":"nonpayable"},{"type":"function","name":"DECISION_TYPEHASH","inputs":[],"outputs":[{"name":"","type":"bytes32","internalType":"bytes32"}],"stateMutability":"view"},{"type":"function","name":"LENDING_V1_HASH","inputs":[],"outputs":[{"name":"","type":"bytes32","internalType":"bytes32"}],"stateMutability":"view"},{"type":"function","name":"acceptedPolicyVersionHash","inputs":[],"outputs":[{"name":"","type":"bytes32","internalType":"bytes32"}],"stateMutability":"view"},{"type":"function","name":"consumedDecision","inputs":[{"name":"","type":"bytes32","internalType":"bytes32"}],"outputs":[{"name":"","type":"bool","internalType":"bool"}],"stateMutability":"view"},{"type":"function","name":"decisionDigest","inputs":[{"name":"decisionId","type":"bytes32","internalType":"bytes32"},{"name":"policyVersionHash","type":"bytes32","internalType":"bytes32"},{"name":"proofSystemHash","type":"bytes32","internalType":"bytes32"},{"name":"proofHash","type":"bytes32","internalType":"bytes32"},{"name":"expiresAt","type":"uint256","internalType":"uint256"},{"name":"beneficiary","type":"address","internalType":"address"},{"name":"amount","type":"uint256","internalType":"uint256"}],"outputs":[{"name":"","type":"bytes32","internalType":"bytes32"}],"stateMutability":"view"},{"type":"function","name":"owner","inputs":[],"outputs":[{"name":"","type":"address","internalType":"address"}],"stateMutability":"view"},{"type":"function","name":"paused","inputs":[],"outputs":[{"name":"","type":"bool","internalType":"bool"}],"stateMutability":"view"},{"type":"function","name":"setPaused","inputs":[{"name":"newPaused","type":"bool","internalType":"bool"}],"outputs":[],"stateMutability":"nonpayable"},{"type":"function","name":"settleApprovedDecision","inputs":[{"name":"decisionId","type":"bytes32","internalType":"bytes32"},{"name":"policyVersionHash","type":"bytes32","internalType":"bytes32"},{"name":"proofSystemHash","type":"bytes32","internalType":"bytes32"},{"name":"proofHash","type":"bytes32","internalType":"bytes32"},{"name":"expiresAt","type":"uint256","internalType":"uint256"},{"name":"signature","type":"bytes","internalType":"bytes"},{"name":"beneficiary","type":"address","internalType":"address"},{"name":"amount","type":"uint256","internalType":"uint256"}],"outputs":[],"stateMutability":"nonpayable"},{"type":"function","name":"transferOwnership","inputs":[{"name":"newOwner","type":"address","internalType":"address"}],"outputs":[],"stateMutability":"nonpayable"},{"type":"function","name":"updateAcceptedPolicyVersion","inputs":[{"name":"newPolicyVersionHash","type":"bytes32","internalType":"bytes32"}],"outputs":[],"stateMutability":"nonpayable"},{"type":"function","name":"updateSigner","inputs":[{"name":"newSigner","type":"address","internalType":"address"}],"outputs":[],"stateMutability":"nonpayable"},{"type":"function","name":"zkcgSigner","inputs":[],"outputs":[{"name":"","type":"address","internalType":"address"}],"stateMutability":"view"},{"type":"event","name":"AcceptedPolicyVersionUpdated","inputs":[{"name":"previousPolicyVersionHash","type":"bytes32","indexed":true,"internalType":"bytes32"},{"name":"newPolicyVersionHash","type":"bytes32","indexed":true,"internalType":"bytes32"}],"anonymous":false},{"type":"event","name":"OwnershipTransferred","inputs":[{"name":"previousOwner","type":"address","indexed":true,"internalType":"address"},{"name":"newOwner","type":"address","indexed":true,"internalType":"address"}],"anonymous":false},{"type":"event","name":"PauseUpdated","inputs":[{"name":"paused","type":"bool","indexed":false,"internalType":"bool"}],"anonymous":false},{"type":"event","name":"SettledWithAttestation","inputs":[{"name":"decisionId","type":"bytes32","indexed":true,"internalType":"bytes32"},{"name":"beneficiary","type":"address","indexed":true,"internalType":"address"},{"name":"amount","type":"uint256","indexed":false,"internalType":"uint256"}],"anonymous":false},{"type":"event","name":"SignerUpdated","inputs":[{"name":"previousSigner","type":"address","indexed":true,"internalType":"address"},{"name":"newSigner","type":"address","indexed":true,"internalType":"address"}],"anonymous":false}],"bytecode":{"object":"0x608060405234801561000f575f80fd5b50604051610c3e380380610c3e83398101604081905261002e91610084565b5f8054336001600160a01b031991821617909155600180549091166001600160a01b03929092169190911790557f58da79def66da2494d82b46cb49d3fd05dd519b361efc8c9d41f3eef4fa4cb0c6002556100b1565b5f60208284031215610094575f80fd5b81516001600160a01b03811681146100aa575f80fd5b9392505050565b610b80806100be5f395ff3fe608060405234801561000f575f80fd5b50600436106100cb575f3560e01c80635c975abb11610088578063aa45f91011610063578063aa45f910146101c4578063bb6939ff146101e6578063d333575d146101ef578063f2fde38b14610216575f80fd5b80635c975abb146101825780638da5cb5b1461019f578063a7ecd37e146101b1575f80fd5b806316335cd3146100cf57806316c38b3c146100e4578063219bd21c146100f757806333fa2b96146101275780634dd4a1681461013a578063572bdcd01461016f575b5f80fd5b6100e26100dd366004610945565b610229565b005b6100e26100f23660046109f8565b61049c565b60015461010a906001600160a01b031681565b6040516001600160a01b0390911681526020015b60405180910390f35b6100e2610135366004610a1e565b61050c565b6101617f58182e899d06f7e5dc5decfea0229c16dbbb18130f9bacf2ff16823ae16b876781565b60405190815260200161011e565b61016161017d366004610a35565b6105b5565b60035461018f9060ff1681565b604051901515815260200161011e565b5f5461010a906001600160a01b031681565b6100e26101bf366004610a8c565b61061c565b61018f6101d2366004610a1e565b60046020525f908152604090205460ff1681565b61016160025481565b6101617f58da79def66da2494d82b46cb49d3fd05dd519b361efc8c9d41f3eef4fa4cb0c81565b6100e2610224366004610a8c565b6106ea565b60035460ff16156102705760405162461bcd60e51b815260206004820152600c60248201526b1e9ad8d9ce881c185d5cd95960a21b60448201526064015b60405180910390fd5b5f8981526004602052604090205460ff16156102ce5760405162461bcd60e51b815260206004820152601f60248201527f7a6b63673a206465636973696f6e20616c726561647920636f6e73756d6564006044820152606401610267565b844211156103175760405162461bcd60e51b81526020600482015260166024820152751e9ad8d9ce88191958da5cda5bdb88195e1c1a5c995960521b6044820152606401610267565b60025488146103685760405162461bcd60e51b815260206004820152601f60248201527f7a6b63673a20756e657870656374656420706f6c6963792076657273696f6e006044820152606401610267565b5f7f58182e899d06f7e5dc5decfea0229c16dbbb18130f9bacf2ff16823ae16b876746308c8c8c8c8c8a8a6040516020016103ac9a99989796959493929190610aa5565b60408051601f1981840301815291905280516020909101206001549091506001600160a01b03166103de8287876107b5565b6001600160a01b0316146104345760405162461bcd60e51b815260206004820152601960248201527f7a6b63673a20696e76616c6964206174746573746174696f6e000000000000006044820152606401610267565b5f8a8152600460205260409020805460ff19166001179055826001600160a01b03168a7f9cf0e910550719f2f20b4f9f435e518ff78377503cc1e02f0653213d561185908460405161048891815260200190565b60405180910390a350505050505050505050565b5f546001600160a01b031633146104c55760405162461bcd60e51b815260040161026790610af6565b6003805460ff19168215159081179091556040519081527f77860e247ab9186dbe64e5bd0e0b93273cc4273e01818420e788f500078886f59060200160405180910390a150565b5f546001600160a01b031633146105355760405162461bcd60e51b815260040161026790610af6565b806105825760405162461bcd60e51b815260206004820152601960248201527f7a6b63673a207a65726f20706f6c6963792076657273696f6e000000000000006044820152606401610267565b6002546040518291907f0b3860ee001f5e01067731093de32161fb63172e74b228a70bef7ab6eff04f9f905f90a3600255565b5f7f58182e899d06f7e5dc5decfea0229c16dbbb18130f9bacf2ff16823ae16b876746308a8a8a8a8a8a8a6040516020016105f99a99989796959493929190610aa5565b604051602081830303815290604052805190602001209050979650505050505050565b5f546001600160a01b031633146106455760405162461bcd60e51b815260040161026790610af6565b6001600160a01b03811661068f5760405162461bcd60e51b81526020600482015260116024820152703d35b1b39d103d32b9379039b4b3b732b960791b6044820152606401610267565b6001546040516001600160a01b038084169216907f2d025324f0a785e8c12d0a0d91a9caa49df4ef20ff87e0df7213a1d4f3157beb905f90a3600180546001600160a01b0319166001600160a01b0392909216919091179055565b5f546001600160a01b031633146107135760405162461bcd60e51b815260040161026790610af6565b6001600160a01b03811661075c5760405162461bcd60e51b815260206004820152601060248201526f3d35b1b39d103d32b9379037bbb732b960811b6044820152606401610267565b5f80546040516001600160a01b03808516939216917f8be0079c531659141344cd1fd0a4f28419497f9722a3daafe3b4186f6b6457e091a35f80546001600160a01b0319166001600160a01b0392909216919091179055565b5f604182146108065760405162461bcd60e51b815260206004820152601e60248201527f7a6b63673a20696e76616c6964207369676e6174757265206c656e67746800006044820152606401610267565b8235602084013560408501355f1a601b81101561082b57610828601b82610b1f565b90505b6040517f19457468657265756d205369676e6564204d6573736167653a0a3332000000006020820152603c81018890525f90605c0160408051601f1981840301815282825280516020918201205f845290830180835281905260ff8516918301919091526060820186905260808201859052915060019060a0016020604051602081039080840390855afa1580156108c5573d5f803e3d5ffd5b5050604051601f1901519550506001600160a01b03851661091f5760405162461bcd60e51b81526020600482015260146024820152733d35b1b39d1034b73b30b634b21039b4b3b732b960611b6044820152606401610267565b505050509392505050565b80356001600160a01b0381168114610940575f80fd5b919050565b5f805f805f805f805f6101008a8c03121561095e575f80fd5b8935985060208a0135975060408a0135965060608a0135955060808a0135945060a08a013567ffffffffffffffff80821115610998575f80fd5b818c0191508c601f8301126109ab575f80fd5b8135818111156109b9575f80fd5b8d60208285010111156109ca575f80fd5b6020830196508095505050506109e260c08b0161092a565b915060e08a013590509295985092959850929598565b5f60208284031215610a08575f80fd5b81358015158114610a17575f80fd5b9392505050565b5f60208284031215610a2e575f80fd5b5035919050565b5f805f805f805f60e0888a031215610a4b575f80fd5b8735965060208801359550604088013594506060880135935060808801359250610a7760a0890161092a565b915060c0880135905092959891949750929550565b5f60208284031215610a9c575f80fd5b610a178261092a565b998a5260208a01989098526001600160a01b0396871660408a01526060890195909552608088019390935260a087019190915260c086015260e0850152166101008301526101208201526101400190565b6020808252600f908201526e3d35b1b39d103737ba1037bbb732b960891b604082015260600190565b60ff8181168382160190811115610b4457634e487b7160e01b5f52601160045260245ffd5b9291505056fea26469706673582212209cb9e15ddff304d8cdae082023db0b6065236ab4bb50a320f653ee463109aa9c64736f6c63430008140033","linkReferences":{}},"methodIdentifiers":{"DECISION_TYPEHASH()":"4dd4a168","LENDING_V1_HASH()":"d333575d","acceptedPolicyVersionHash()":"bb6939ff","consumedDecision(bytes32)":"aa45f910","decisionDigest(bytes32,bytes32,bytes32,bytes32,uint256,address,uint256)":"572bdcd0","owner()":"8da5cb5b","paused()":"5c975abb","setPaused(bool)":"16c38b3c","settleApprovedDecision(bytes32,bytes32,bytes32,bytes32,uint256,bytes,address,uint256)":"16335cd3","transferOwnership(address)":"f2fde38b","updateAcceptedPolicyVersion(bytes32)":"33fa2b96","updateSigner(address)":"a7ecd37e","zkcgSigner()":"219bd21c"},"id":5}