{"abi":[{"type":"constructor","inputs":[{"name":"verifierAddress","type":"address","internalType":"address"}],"stateMutability":"nonpayable"},{"type":"function","name":"approvals","inputs":[{"name":"","type":"address","internalType":"address"}],"outputs":[{"name":"creditLimitCents","type":"uint256","internalType":"uint256"},{"name":"maxAprBps","type":"uint256","internalType":"uint256"},{"name":"decisionId","type":"bytes32","internalType":"bytes32"}],"stateMutability":"view"},{"type":"function","name":"approveBorrower","inputs":[{"name":"proof","type":"bytes","internalType":"bytes"},{"name":"publicInputs","type":"bytes","internalType":"bytes"},{"name":"borrower","type":"address","internalType":"address"},{"name":"creditLimitCents","type":"uint256","internalType":"uint256"},{"name":"maxAprBps","type":"uint256","internalType":"uint256"}],"outputs":[],"stateMutability":"nonpayable"},{"type":"function","name":"consumedDecision","inputs":[{"name":"","type":"bytes32","internalType":"bytes32"}],"outputs":[{"name":"","type":"bool","internalType":"bool"}],"stateMutability":"view"},{"type":"function","name":"verifier","inputs":[],"outputs":[{"name":"","type":"address","internalType":"contract IZKCGVerifier"}],"stateMutability":"view"},{"type":"event","name":"BorrowerApproved","inputs":[{"name":"decisionId","type":"bytes32","indexed":true,"internalType":"bytes32"},{"name":"borrower","type":"address","indexed":true,"internalType":"address"},{"name":"creditLimitCents","type":"uint256","indexed":false,"internalType":"uint256"},{"name":"maxAprBps","type":"uint256","indexed":false,"internalType":"uint256"}],"anonymous":false},{"type":"event","name":"DecisionConsumed","inputs":[{"name":"decisionId","type":"bytes32","indexed":true,"internalType":"bytes32"}],"anonymous":false},{"type":"error","name":"DecisionAlreadyConsumed","inputs":[{"name":"decisionId","type":"bytes32","internalType":"bytes32"}]},{"type":"error","name":"InvalidZKCGProof","inputs":[]},{"type":"error","name":"UnexpectedPayloadHash","inputs":[{"name":"expected","type":"bytes32","internalType":"bytes32"},{"name":"actual","type":"bytes32","internalType":"bytes32"}]},{"type":"error","name":"UnexpectedPolicyVersion","inputs":[{"name":"expected","type":"bytes32","internalType":"bytes32"},{"name":"actual","type":"bytes32","internalType":"bytes32"}]}],"bytecode":{"object":"0x60a060405234801561000f575f80fd5b506040516107aa3803806107aa83398101604081905261002e9161009b565b806001600160a01b0381166100895760405162461bcd60e51b815260206004820152601360248201527f7a6b63673a207a65726f20766572696669657200000000000000000000000000604482015260640160405180910390fd5b6001600160a01b0316608052506100c8565b5f602082840312156100ab575f80fd5b81516001600160a01b03811681146100c1575f80fd5b9392505050565b6080516106c46100e65f395f81816053015261026001526106c45ff3fe608060405234801561000f575f80fd5b506004361061004a575f3560e01c80632b7ac3f31461004e5780635d0341ba14610092578063aa45f910146100da578063d4749f9d1461010c575b5f80fd5b6100757f000000000000000000000000000000000000000000000000000000000000000081565b6040516001600160a01b0390911681526020015b60405180910390f35b6100bf6100a03660046104d6565b600160208190525f918252604090912080549181015460029091015483565b60408051938452602084019290925290820152606001610089565b6100fc6100e83660046104f6565b5f6020819052908152604090205460ff1681565b6040519015158152602001610089565b61011f61011a366004610552565b610121565b005b60408051306020808301919091526001600160a01b038616828401526060820185905260808083018590528351808403909101815260a090920190925280519101205f906101989089908990899089907f58da79def66da2494d82b46cb49d3fd05dd519b361efc8c9d41f3eef4fa4cb0c9061022b565b60408051606081018252858152602080820186815284518385019081526001600160a01b038a165f8181526001808652908790209551865592519285019290925551600290930192909255835183518881529182018790529394509092917fc514b60fc7bb4ae61b2bfeb4cdf8f8a5c87dc7b79f4be88497a92c3a97dfb9e7910160405180910390a35050505050505050565b6040805160a0810182525f80825260208201819052818301819052606082018190526080820152905163d333fa4760e01b81527f00000000000000000000000000000000000000000000000000000000000000006001600160a01b03169063d333fa47906102a3908a908a908a908a90600401610607565b602060405180830381865afa1580156102be573d5f803e3d5ffd5b505050506040513d601f19601f820116820180604052508101906102e29190610638565b6102ff5760405163ecab6b8b60e01b815260040160405180910390fd5b61030985856103fe565b80515f9081526020819052604090205490915060ff16156103485780516040516315b58f8360e01b815260048101919091526024015b60405180910390fd5b8281602001511461037c576020810151604051636f3f93b360e11b815261033f918591600401918252602082015260400190565b818160600151146103b0576060810151604051630a56add960e31b815261033f918491600401918252602082015260400190565b80515f90815260208190526040808220805460ff191660011790558251905190917fdd3452229fdad8316d90d048e986f352d84de6228de6ac1fcf7347f1963e4da991a29695505050505050565b6040805160a0810182525f8082526020820181905291810182905260608101829052608081019190915260a082146104785760405162461bcd60e51b815260206004820152601d60248201527f7a6b63673a206d616c666f726d6564207075626c696320696e70757473000000604482015260640161033f565b5f8080808061048987890189610657565b6040805160a0810182529586526020860194909452928401919091526060830152608082015298975050505050505050565b80356001600160a01b03811681146104d1575f80fd5b919050565b5f602082840312156104e6575f80fd5b6104ef826104bb565b9392505050565b5f60208284031215610506575f80fd5b5035919050565b5f8083601f84011261051d575f80fd5b50813567ffffffffffffffff811115610534575f80fd5b60208301915083602082850101111561054b575f80fd5b9250929050565b5f805f805f805f60a0888a031215610568575f80fd5b873567ffffffffffffffff8082111561057f575f80fd5b61058b8b838c0161050d565b909950975060208a01359150808211156105a3575f80fd5b506105b08a828b0161050d565b90965094506105c39050604089016104bb565b9250606088013591506080880135905092959891949750929550565b81835281816020850137505f828201602090810191909152601f909101601f19169091010190565b604081525f61061a6040830186886105df565b828103602084015261062d8185876105df565b979650505050505050565b5f60208284031215610648575f80fd5b815180151581146104ef575f80fd5b5f805f805f60a0868803121561066b575f80fd5b50508335956020850135955060408501359460608101359450608001359250905056fea2646970667358221220ef3f515dd65a13ed0271c3a9cf983f8f92b6ef6273e2b8130c54f16cee49eba764736f6c63430008140033","linkReferences":{}},"methodIdentifiers":{"approvals(address)":"5d0341ba","approveBorrower(bytes,bytes,address,uint256,uint256)":"d4749f9d","consumedDecision(bytes32)":"aa45f910","verifier()":"2b7ac3f3"},"id":1}