{"abi":[{"type":"constructor","inputs":[{"name":"verifierAddress","type":"address","internalType":"address"}],"stateMutability":"nonpayable"},{"type":"function","name":"settleWithProof","inputs":[{"name":"proof","type":"bytes","internalType":"bytes"},{"name":"publicInputs","type":"bytes","internalType":"bytes"},{"name":"beneficiary","type":"address","internalType":"address"},{"name":"amount","type":"uint256","internalType":"uint256"}],"outputs":[],"stateMutability":"nonpayable"},{"type":"function","name":"verifier","inputs":[],"outputs":[{"name":"","type":"address","internalType":"contract IZKCGVerifier"}],"stateMutability":"view"},{"type":"event","name":"SettledWithProof","inputs":[{"name":"beneficiary","type":"address","indexed":true,"internalType":"address"},{"name":"amount","type":"uint256","indexed":false,"internalType":"uint256"}],"anonymous":false}],"bytecode":{"object":"0x60a060405234801561000f575f80fd5b506040516103c63803806103c683398101604081905261002e9161003f565b6001600160a01b031660805261006c565b5f6020828403121561004f575f80fd5b81516001600160a01b0381168114610065575f80fd5b9392505050565b60805161033d6100895f395f8181603d015260a7015261033d5ff3fe608060405234801561000f575f80fd5b5060043610610034575f3560e01c80632b7ac3f314610038578063b682f6c71461007b575b5f80fd5b61005f7f000000000000000000000000000000000000000000000000000000000000000081565b6040516001600160a01b03909116815260200160405180910390f35b61008e6100893660046101f7565b610090565b005b60405163d333fa4760e01b81526001600160a01b037f0000000000000000000000000000000000000000000000000000000000000000169063d333fa47906100e29089908990899089906004016102b0565b602060405180830381865afa1580156100fd573d5f803e3d5ffd5b505050506040513d601f19601f8201168201806040525081019061012191906102e1565b6101675760405162461bcd60e51b81526020600482015260136024820152723d35b1b39d1034b73b30b634b210383937b7b360691b604482015260640160405180910390fd5b816001600160a01b03167f46d828c1c0dfd7b95f18b3adc0a5772e93a90b0c3d3c6d534f9b44ac7ee1ed99826040516101a291815260200190565b60405180910390a2505050505050565b5f8083601f8401126101c2575f80fd5b50813567ffffffffffffffff8111156101d9575f80fd5b6020830191508360208285010111156101f0575f80fd5b9250929050565b5f805f805f806080878903121561020c575f80fd5b863567ffffffffffffffff80821115610223575f80fd5b61022f8a838b016101b2565b90985096506020890135915080821115610247575f80fd5b5061025489828a016101b2565b90955093505060408701356001600160a01b0381168114610273575f80fd5b80925050606087013590509295509295509295565b81835281816020850137505f828201602090810191909152601f909101601f19169091010190565b604081525f6102c3604083018688610288565b82810360208401526102d6818587610288565b979650505050505050565b5f602082840312156102f1575f80fd5b81518015158114610300575f80fd5b939250505056fea26469706673582212206c09c479f85f2b2632c4b98b3acfc9453d5f5267c2a0a74d87de1eab4cbd7ff764736f6c63430008140033","linkReferences":{}},"methodIdentifiers":{"settleWithProof(bytes,bytes,address,uint256)":"b682f6c7","verifier()":"2b7ac3f3"},"id":6}