{"abi":[{"type":"constructor","inputs":[{"name":"verifierAddress","type":"address","internalType":"address"}],"stateMutability":"nonpayable"},{"type":"function","name":"consumedDecision","inputs":[{"name":"","type":"bytes32","internalType":"bytes32"}],"outputs":[{"name":"","type":"bool","internalType":"bool"}],"stateMutability":"view"},{"type":"function","name":"latestPrice","inputs":[{"name":"","type":"bytes32","internalType":"bytes32"}],"outputs":[{"name":"price","type":"uint256","internalType":"uint256"},{"name":"validUntil","type":"uint256","internalType":"uint256"},{"name":"decisionId","type":"bytes32","internalType":"bytes32"}],"stateMutability":"view"},{"type":"function","name":"readPrice","inputs":[{"name":"feedId","type":"bytes32","internalType":"bytes32"}],"outputs":[{"name":"price","type":"uint256","internalType":"uint256"}],"stateMutability":"view"},{"type":"function","name":"submitPrice","inputs":[{"name":"proof","type":"bytes","internalType":"bytes"},{"name":"publicInputs","type":"bytes","internalType":"bytes"},{"name":"feedId","type":"bytes32","internalType":"bytes32"},{"name":"price","type":"uint256","internalType":"uint256"},{"name":"validUntil","type":"uint256","internalType":"uint256"}],"outputs":[],"stateMutability":"nonpayable"},{"type":"function","name":"verifier","inputs":[],"outputs":[{"name":"","type":"address","internalType":"contract IZKCGVerifier"}],"stateMutability":"view"},{"type":"event","name":"DecisionConsumed","inputs":[{"name":"decisionId","type":"bytes32","indexed":true,"internalType":"bytes32"}],"anonymous":false},{"type":"event","name":"PriceAccepted","inputs":[{"name":"feedId","type":"bytes32","indexed":true,"internalType":"bytes32"},{"name":"decisionId","type":"bytes32","indexed":true,"internalType":"bytes32"},{"name":"price","type":"uint256","indexed":false,"internalType":"uint256"},{"name":"validUntil","type":"uint256","indexed":false,"internalType":"uint256"}],"anonymous":false},{"type":"error","name":"DecisionAlreadyConsumed","inputs":[{"name":"decisionId","type":"bytes32","internalType":"bytes32"}]},{"type":"error","name":"InvalidZKCGProof","inputs":[]},{"type":"error","name":"UnexpectedPayloadHash","inputs":[{"name":"expected","type":"bytes32","internalType":"bytes32"},{"name":"actual","type":"bytes32","internalType":"bytes32"}]},{"type":"error","name":"UnexpectedPolicyVersion","inputs":[{"name":"expected","type":"bytes32","internalType":"bytes32"},{"name":"actual","type":"bytes32","internalType":"bytes32"}]}],"bytecode":{"object":"0x60a060405234801561000f575f80fd5b506040516107fa3803806107fa83398101604081905261002e9161009b565b806001600160a01b0381166100895760405162461bcd60e51b815260206004820152601360248201527f7a6b63673a207a65726f20766572696669657200000000000000000000000000604482015260640160405180910390fd5b6001600160a01b0316608052506100c8565b5f602082840312156100ab575f80fd5b81516001600160a01b03811681146100c1575f80fd5b9392505050565b6080516107146100e65f395f8181608401526102f601526107145ff3fe608060405234801561000f575f80fd5b5060043610610055575f3560e01c806308f4c320146100595780632b7ac3f31461007f5780634eec7c2b146100be578063810b166e14610106578063aa45f9101461011b575b5f80fd5b61006c61006736600461054c565b61014d565b6040519081526020015b60405180910390f35b6100a67f000000000000000000000000000000000000000000000000000000000000000081565b6040516001600160a01b039091168152602001610076565b6100eb6100cc36600461054c565b600160208190525f918252604090912080549181015460029091015483565b60408051938452602084019290925290820152606001610076565b6101196101143660046105a8565b6101ca565b005b61013d61012936600461054c565b5f6020819052908152604090205460ff1681565b6040519015158152602001610076565b5f8181526001602081815260408084208151606081018352815481529381015492840183905260020154908301524211156101c35760405162461bcd60e51b81526020600482015260116024820152707a6b63673a207374616c6520707269636560781b60448201526064015b60405180910390fd5b5192915050565b60408051306020808301919091528183018690526060820185905260808083018590528351808403909101815260a090920190925280519101205f906102399089908990899089907f649171a6953a19fb3088b47053105f7a51606f361cb027ad0a3b50bd980d71c7906102c1565b60408051606081018252858152602080820186815284518385019081525f8a815260018085529086902094518555915191840191909155516002909201919091558251825187815291820186905292935086917fdc7e663b3ebe60300c78110f7b94f4e4df01cd9bc2abd9652e502c0e7bfdb449910160405180910390a35050505050505050565b6040805160a0810182525f80825260208201819052818301819052606082018190526080820152905163d333fa4760e01b81527f00000000000000000000000000000000000000000000000000000000000000006001600160a01b03169063d333fa4790610339908a908a908a908a90600401610650565b602060405180830381865afa158015610354573d5f803e3d5ffd5b505050506040513d601f19601f820116820180604052508101906103789190610681565b6103955760405163ecab6b8b60e01b815260040160405180910390fd5b61039f858561048f565b80515f9081526020819052604090205490915060ff16156103d95780516040516315b58f8360e01b815260048101919091526024016101ba565b8281602001511461040d576020810151604051636f3f93b360e11b81526101ba918591600401918252602082015260400190565b81816060015114610441576060810151604051630a56add960e31b81526101ba918491600401918252602082015260400190565b80515f90815260208190526040808220805460ff191660011790558251905190917fdd3452229fdad8316d90d048e986f352d84de6228de6ac1fcf7347f1963e4da991a29695505050505050565b6040805160a0810182525f8082526020820181905291810182905260608101829052608081019190915260a082146105095760405162461bcd60e51b815260206004820152601d60248201527f7a6b63673a206d616c666f726d6564207075626c696320696e7075747300000060448201526064016101ba565b5f8080808061051a878901896106a7565b6040805160a0810182529586526020860194909452928401919091526060830152608082015298975050505050505050565b5f6020828403121561055c575f80fd5b5035919050565b5f8083601f840112610573575f80fd5b50813567ffffffffffffffff81111561058a575f80fd5b6020830191508360208285010111156105a1575f80fd5b9250929050565b5f805f805f805f60a0888a0312156105be575f80fd5b873567ffffffffffffffff808211156105d5575f80fd5b6105e18b838c01610563565b909950975060208a01359150808211156105f9575f80fd5b506106068a828b01610563565b989b979a50986040810135976060820135975060809091013595509350505050565b81835281816020850137505f828201602090810191909152601f909101601f19169091010190565b604081525f610663604083018688610628565b8281036020840152610676818587610628565b979650505050505050565b5f60208284031215610691575f80fd5b815180151581146106a0575f80fd5b9392505050565b5f805f805f60a086880312156106bb575f80fd5b50508335956020850135955060408501359460608101359450608001359250905056fea264697066735822122037220defcfde75c2eeba7052e8eb591c85e12cb75cfb25dea254b9065a2e696164736f6c63430008140033","linkReferences":{}},"methodIdentifiers":{"consumedDecision(bytes32)":"aa45f910","latestPrice(bytes32)":"4eec7c2b","readPrice(bytes32)":"08f4c320","submitPrice(bytes,bytes,bytes32,uint256,uint256)":"810b166e","verifier()":"2b7ac3f3"},"id":1}