{"abi":[{"type":"constructor","inputs":[{"name":"signer","type":"address","internalType":"address"}],"stateMutability":"nonpayable"},{"type":"function","name":"DECISION_TYPEHASH","inputs":[],"outputs":[{"name":"","type":"bytes32","internalType":"bytes32"}],"stateMutability":"view"},{"type":"function","name":"acceptedPolicyVersion","inputs":[{"name":"","type":"bytes32","internalType":"bytes32"}],"outputs":[{"name":"","type":"bool","internalType":"bool"}],"stateMutability":"view"},{"type":"function","name":"acceptedProofSystem","inputs":[{"name":"","type":"bytes32","internalType":"bytes32"}],"outputs":[{"name":"","type":"bool","internalType":"bool"}],"stateMutability":"view"},{"type":"function","name":"decisionDigest","inputs":[{"name":"decisionId","type":"bytes32","internalType":"bytes32"},{"name":"policyVersionHash","type":"bytes32","internalType":"bytes32"},{"name":"proofSystemHash","type":"bytes32","internalType":"bytes32"},{"name":"payloadHash","type":"bytes32","internalType":"bytes32"},{"name":"expiresAt","type":"uint256","internalType":"uint256"}],"outputs":[{"name":"","type":"bytes32","internalType":"bytes32"}],"stateMutability":"view"},{"type":"function","name":"decodeDecisionInputs","inputs":[{"name":"publicInputs","type":"bytes","internalType":"bytes"}],"outputs":[{"name":"decisionId","type":"bytes32","internalType":"bytes32"},{"name":"policyVersionHash","type":"bytes32","internalType":"bytes32"},{"name":"proofSystemHash","type":"bytes32","internalType":"bytes32"},{"name":"payloadHash","type":"bytes32","internalType":"bytes32"},{"name":"expiresAt","type":"uint256","internalType":"uint256"}],"stateMutability":"pure"},{"type":"function","name":"owner","inputs":[],"outputs":[{"name":"","type":"address","internalType":"address"}],"stateMutability":"view"},{"type":"function","name":"paused","inputs":[],"outputs":[{"name":"","type":"bool","internalType":"bool"}],"stateMutability":"view"},{"type":"function","name":"setAcceptedPolicyVersion","inputs":[{"name":"policyVersionHash","type":"bytes32","internalType":"bytes32"},{"name":"accepted","type":"bool","internalType":"bool"}],"outputs":[],"stateMutability":"nonpayable"},{"type":"function","name":"setAcceptedProofSystem","inputs":[{"name":"proofSystemHash","type":"bytes32","internalType":"bytes32"},{"name":"accepted","type":"bool","internalType":"bool"}],"outputs":[],"stateMutability":"nonpayable"},{"type":"function","name":"setPaused","inputs":[{"name":"newPaused","type":"bool","internalType":"bool"}],"outputs":[],"stateMutability":"nonpayable"},{"type":"function","name":"transferOwnership","inputs":[{"name":"newOwner","type":"address","internalType":"address"}],"outputs":[],"stateMutability":"nonpayable"},{"type":"function","name":"updateSigner","inputs":[{"name":"newSigner","type":"address","internalType":"address"}],"outputs":[],"stateMutability":"nonpayable"},{"type":"function","name":"verifyZKCG","inputs":[{"name":"proof","type":"bytes","internalType":"bytes"},{"name":"publicInputs","type":"bytes","internalType":"bytes"}],"outputs":[{"name":"","type":"bool","internalType":"bool"}],"stateMutability":"view"},{"type":"function","name":"zkcgSigner","inputs":[],"outputs":[{"name":"","type":"address","internalType":"address"}],"stateMutability":"view"},{"type":"event","name":"OwnershipTransferred","inputs":[{"name":"previousOwner","type":"address","indexed":true,"internalType":"address"},{"name":"newOwner","type":"address","indexed":true,"internalType":"address"}],"anonymous":false},{"type":"event","name":"PauseUpdated","inputs":[{"name":"paused","type":"bool","indexed":false,"internalType":"bool"}],"anonymous":false},{"type":"event","name":"PolicyVersionUpdated","inputs":[{"name":"policyVersionHash","type":"bytes32","indexed":true,"internalType":"bytes32"},{"name":"accepted","type":"bool","indexed":false,"internalType":"bool"}],"anonymous":false},{"type":"event","name":"ProofSystemUpdated","inputs":[{"name":"proofSystemHash","type":"bytes32","indexed":true,"internalType":"bytes32"},{"name":"accepted","type":"bool","indexed":false,"internalType":"bool"}],"anonymous":false},{"type":"event","name":"SignerUpdated","inputs":[{"name":"previousSigner","type":"address","indexed":true,"internalType":"address"},{"name":"newSigner","type":"address","indexed":true,"internalType":"address"}],"anonymous":false}],"bytecode":{"object":"0x608060405234801562000010575f80fd5b5060405162000f5238038062000f52833981016040819052620000339162000293565b6001600160a01b038116620000825760405162461bcd60e51b81526020600482015260116024820152703d35b1b39d103d32b9379039b4b3b732b960791b604482015260640160405180910390fd5b5f8054336001600160a01b031991821617909155600180549091166001600160a01b038316178155620000d7907f58da79def66da2494d82b46cb49d3fd05dd519b361efc8c9d41f3eef4fa4cb0c90620001ec565b620001047f84670f18a20b1c359f5cbabf0932045d151709f443825bad874f1da2bd20ac3f6001620001ec565b620001317f649171a6953a19fb3088b47053105f7a51606f361cb027ad0a3b50bd980d71c76001620001ec565b6200015e7f4168c79ecce81b2437d8d6759521001a5397da55222e5834a5be9b1581a9b28c6001620001ec565b6200018b7f5029d7854f044632a2232dd6f1480c92403e258d8e62385ab72a08f7641c782d6001620001ec565b620001b87fce1e2495194b94df2707c7ea087684314973fbffdc84252c8fa2118628f8f30a600162000243565b620001e57f021dfc1584092ff59ac5dfb85bf94d6aca48c4df8d330d717da982607be889e1600162000243565b50620002c2565b5f82815260026020908152604091829020805460ff1916841515908117909155915191825283917fb9d6398986580be32b2979f75af1f8627890744b24c344aea35ea881977778e991015b60405180910390a25050565b5f82815260036020908152604091829020805460ff1916841515908117909155915191825283917fb944982d81d2eaec16d52ba59c57b09b2ae0708824dabdf13e81fd13219a5fd0910162000237565b5f60208284031215620002a4575f80fd5b81516001600160a01b0381168114620002bb575f80fd5b9392505050565b610c8280620002d05f395ff3fe608060405234801561000f575f80fd5b50600436106100e5575f3560e01c80634dd4a16811610088578063a7ecd37e11610063578063a7ecd37e1461022f578063d333fa4714610242578063f2fde38b14610255578063f33fcdfc14610268575f80fd5b80634dd4a168146101e25780635c975abb146102095780638da5cb5b1461021d575f80fd5b8063219bd21c116100c3578063219bd21c146101515780633a3867251461017c57806342f1742c146101ae57806346877425146101cf575f80fd5b80630855f0b8146100e95780630fe62dcb1461012957806316c38b3c1461013e575b5f80fd5b6100fc6100f7366004610a87565b61028a565b604080519586526020860194909452928401919091526060830152608082015260a0015b60405180910390f35b61013c610137366004610ada565b6102e5565b005b61013c61014c366004610b04565b610372565b600154610164906001600160a01b031681565b6040516001600160a01b039091168152602001610120565b61019e61018a366004610b1d565b60026020525f908152604090205460ff1681565b6040519015158152602001610120565b6101c16101bc366004610b34565b6103f3565b604051908152602001610120565b61013c6101dd366004610ada565b610470565b6101c17f111877bc1426544b3edbc94e04b346e8af4e1712648b9353fbf47171fc5b11c281565b60015461019e90600160a01b900460ff1681565b5f54610164906001600160a01b031681565b61013c61023d366004610b6b565b6104f0565b61019e610250366004610b91565b6105be565b61013c610263366004610b6b565b6105d6565b61019e610276366004610b1d565b60036020525f908152604090205460ff1681565b5f8080808060a086146102aa57505f9350839250829150819050806102db565b5f6102b588886106a1565b9050805f0151816020015182604001518360600151846080015195509550955095509550505b9295509295909350565b5f546001600160a01b031633146103175760405162461bcd60e51b815260040161030e90610bf8565b60405180910390fd5b816103645760405162461bcd60e51b815260206004820152601960248201527f7a6b63673a207a65726f20706f6c6963792076657273696f6e00000000000000604482015260640161030e565b61036e828261075e565b5050565b5f546001600160a01b0316331461039b5760405162461bcd60e51b815260040161030e90610bf8565b60018054821515600160a01b0260ff60a01b199091161790556040517f77860e247ab9186dbe64e5bd0e0b93273cc4273e01818420e788f500078886f5906103e890831515815260200190565b60405180910390a150565b604080517f111877bc1426544b3edbc94e04b346e8af4e1712648b9353fbf47171fc5b11c26020808301919091524682840152306060830152608082019790975260a081019590955260c085019390935260e084019190915261010080840191909152815180840390910181526101209092019052805191012090565b5f546001600160a01b031633146104995760405162461bcd60e51b815260040161030e90610bf8565b816104e65760405162461bcd60e51b815260206004820152601760248201527f7a6b63673a207a65726f2070726f6f662073797374656d000000000000000000604482015260640161030e565b61036e82826107b5565b5f546001600160a01b031633146105195760405162461bcd60e51b815260040161030e90610bf8565b6001600160a01b0381166105635760405162461bcd60e51b81526020600482015260116024820152703d35b1b39d103d32b9379039b4b3b732b960791b604482015260640161030e565b6001546040516001600160a01b038084169216907f2d025324f0a785e8c12d0a0d91a9caa49df4ef20ff87e0df7213a1d4f3157beb905f90a3600180546001600160a01b0319166001600160a01b0392909216919091179055565b5f6105cb85858585610804565b90505b949350505050565b5f546001600160a01b031633146105ff5760405162461bcd60e51b815260040161030e90610bf8565b6001600160a01b0381166106485760405162461bcd60e51b815260206004820152601060248201526f3d35b1b39d103d32b9379037bbb732b960811b604482015260640161030e565b5f80546040516001600160a01b03808516939216917f8be0079c531659141344cd1fd0a4f28419497f9722a3daafe3b4186f6b6457e091a35f80546001600160a01b0319166001600160a01b0392909216919091179055565b6040805160a0810182525f8082526020820181905291810182905260608101829052608081019190915260a0821461071b5760405162461bcd60e51b815260206004820152601d60248201527f7a6b63673a206d616c666f726d6564207075626c696320696e70757473000000604482015260640161030e565b5f8080808061072c87890189610b34565b6040805160a0810182529586526020860194909452928401919091526060830152608082015298975050505050505050565b5f82815260026020908152604091829020805460ff1916841515908117909155915191825283917fb9d6398986580be32b2979f75af1f8627890744b24c344aea35ea881977778e991015b60405180910390a25050565b5f82815260036020908152604091829020805460ff1916841515908117909155915191825283917fb944982d81d2eaec16d52ba59c57b09b2ae0708824dabdf13e81fd13219a5fd091016107a9565b6001545f90600160a01b900460ff161561081f57505f6105ce565b604184141580610830575060a08214155b1561083c57505f6105ce565b5f61084784846106a1565b6020808201515f9081526002909152604090205490915060ff1661086e575f9150506105ce565b6040808201515f9081526003602052205460ff1661088f575f9150506105ce565b80608001514211156108a4575f9150506105ce565b60015f9054906101000a90046001600160a01b03166001600160a01b03166108ec6108e5835f015184602001518560400151866060015187608001516103f3565b8888610900565b6001600160a01b0316149695505050505050565b5f6041821461091057505f610a3b565b8235602084013560408501355f1a601b81101561093557610932601b82610c21565b90505b8060ff16601b1415801561094d57508060ff16601c14155b1561095d575f9350505050610a3b565b7f7fffffffffffffffffffffffffffffff5d576e7357a4501ddfe92f46681b20a0821115610990575f9350505050610a3b565b6040517f19457468657265756d205369676e6564204d6573736167653a0a3332000000006020820152603c81018890525f90605c0160408051601f1981840301815282825280516020918201205f845290830180835281905260ff8516918301919091526060820186905260808201859052915060019060a0016020604051602081039080840390855afa158015610a2a573d5f803e3d5ffd5b505050602060405103519450505050505b9392505050565b5f8083601f840112610a52575f80fd5b50813567ffffffffffffffff811115610a69575f80fd5b602083019150836020828501011115610a80575f80fd5b9250929050565b5f8060208385031215610a98575f80fd5b823567ffffffffffffffff811115610aae575f80fd5b610aba85828601610a42565b90969095509350505050565b80358015158114610ad5575f80fd5b919050565b5f8060408385031215610aeb575f80fd5b82359150610afb60208401610ac6565b90509250929050565b5f60208284031215610b14575f80fd5b610a3b82610ac6565b5f60208284031215610b2d575f80fd5b5035919050565b5f805f805f60a08688031215610b48575f80fd5b505083359560208501359550604085013594606081013594506080013592509050565b5f60208284031215610b7b575f80fd5b81356001600160a01b0381168114610a3b575f80fd5b5f805f8060408587031215610ba4575f80fd5b843567ffffffffffffffff80821115610bbb575f80fd5b610bc788838901610a42565b90965094506020870135915080821115610bdf575f80fd5b50610bec87828801610a42565b95989497509550505050565b6020808252600f908201526e3d35b1b39d103737ba1037bbb732b960891b604082015260600190565b60ff8181168382160190811115610c4657634e487b7160e01b5f52601160045260245ffd5b9291505056fea264697066735822122096ef80aee6802a89c2113cb92969d3ac853624b153ec3a5807a1e2c8c9582af464736f6c63430008140033","linkReferences":{}},"methodIdentifiers":{"DECISION_TYPEHASH()":"4dd4a168","acceptedPolicyVersion(bytes32)":"3a386725","acceptedProofSystem(bytes32)":"f33fcdfc","decisionDigest(bytes32,bytes32,bytes32,bytes32,uint256)":"42f1742c","decodeDecisionInputs(bytes)":"0855f0b8","owner()":"8da5cb5b","paused()":"5c975abb","setAcceptedPolicyVersion(bytes32,bool)":"0fe62dcb","setAcceptedProofSystem(bytes32,bool)":"46877425","setPaused(bool)":"16c38b3c","transferOwnership(address)":"f2fde38b","updateSigner(address)":"a7ecd37e","verifyZKCG(bytes,bytes)":"d333fa47","zkcgSigner()":"219bd21c"},"id":0}