{"abi":[{"type":"constructor","inputs":[{"name":"verifierAddress","type":"address","internalType":"address"}],"stateMutability":"nonpayable"},{"type":"function","name":"approveTransfer","inputs":[{"name":"proof","type":"bytes","internalType":"bytes"},{"name":"publicInputs","type":"bytes","internalType":"bytes"},{"name":"claimsHash","type":"bytes32","internalType":"bytes32"},{"name":"decisionCommitmentHash","type":"bytes32","internalType":"bytes32"}],"outputs":[],"stateMutability":"nonpayable"},{"type":"function","name":"approvedDecisionId","inputs":[{"name":"transferKey","type":"bytes32","internalType":"bytes32"}],"outputs":[{"name":"","type":"bytes32","internalType":"bytes32"}],"stateMutability":"view"},{"type":"function","name":"approvedTransfers","inputs":[{"name":"","type":"bytes32","internalType":"bytes32"}],"outputs":[{"name":"claimsHash","type":"bytes32","internalType":"bytes32"},{"name":"decisionCommitmentHash","type":"bytes32","internalType":"bytes32"},{"name":"decisionId","type":"bytes32","internalType":"bytes32"}],"stateMutability":"view"},{"type":"function","name":"consumedDecision","inputs":[{"name":"","type":"bytes32","internalType":"bytes32"}],"outputs":[{"name":"","type":"bool","internalType":"bool"}],"stateMutability":"view"},{"type":"function","name":"isTransferApproved","inputs":[{"name":"transferKey","type":"bytes32","internalType":"bytes32"}],"outputs":[{"name":"","type":"bool","internalType":"bool"}],"stateMutability":"view"},{"type":"function","name":"transferKeyFor","inputs":[{"name":"claimsHash","type":"bytes32","internalType":"bytes32"},{"name":"decisionCommitmentHash","type":"bytes32","internalType":"bytes32"}],"outputs":[{"name":"","type":"bytes32","internalType":"bytes32"}],"stateMutability":"pure"},{"type":"function","name":"verifier","inputs":[],"outputs":[{"name":"","type":"address","internalType":"contract IZKCGVerifier"}],"stateMutability":"view"},{"type":"event","name":"DecisionConsumed","inputs":[{"name":"decisionId","type":"bytes32","indexed":true,"internalType":"bytes32"}],"anonymous":false},{"type":"event","name":"TransferApproved","inputs":[{"name":"transferKey","type":"bytes32","indexed":true,"internalType":"bytes32"},{"name":"decisionId","type":"bytes32","indexed":true,"internalType":"bytes32"},{"name":"claimsHash","type":"bytes32","indexed":false,"internalType":"bytes32"},{"name":"decisionCommitmentHash","type":"bytes32","indexed":false,"internalType":"bytes32"}],"anonymous":false},{"type":"error","name":"DecisionAlreadyConsumed","inputs":[{"name":"decisionId","type":"bytes32","internalType":"bytes32"}]},{"type":"error","name":"InvalidZKCGProof","inputs":[]},{"type":"error","name":"UnexpectedPayloadHash","inputs":[{"name":"expected","type":"bytes32","internalType":"bytes32"},{"name":"actual","type":"bytes32","internalType":"bytes32"}]},{"type":"error","name":"UnexpectedPolicyVersion","inputs":[{"name":"expected","type":"bytes32","internalType":"bytes32"},{"name":"actual","type":"bytes32","internalType":"bytes32"}]}],"bytecode":{"object":"0x60a060405234801561000f575f80fd5b5060405161085d38038061085d83398101604081905261002e9161009b565b806001600160a01b0381166100895760405162461bcd60e51b815260206004820152601360248201527f7a6b63673a207a65726f20766572696669657200000000000000000000000000604482015260640160405180910390fd5b6001600160a01b0316608052506100c8565b5f602082840312156100ab575f80fd5b81516001600160a01b03811681146100c1575f80fd5b9392505050565b6080516107776100e65f395f81816083015261033c01526107775ff3fe608060405234801561000f575f80fd5b506004361061007a575f3560e01c80638660ed1a116100585780638660ed1a1461011f57806391d3964614610167578063aa45f91014610189578063daf402df146101bb575f80fd5b80632b7ac3f31461007e57806358d354dd146100c257806363c194db1461010a575b5f80fd5b6100a57f000000000000000000000000000000000000000000000000000000000000000081565b6040516001600160a01b0390911681526020015b60405180910390f35b6100ef6100d0366004610597565b600160208190525f918252604090912080549181015460029091015483565b604080519384526020840192909252908201526060016100b9565b61011d6101183660046105f3565b6101df565b005b61015961012d36600461066b565b604080516020808201949094528082019290925280518083038201815260609092019052805191012090565b6040519081526020016100b9565b610159610175366004610597565b5f9081526001602052604090206002015490565b6101ab610197366004610597565b5f6020819052908152604090205460ff1681565b60405190151581526020016100b9565b6101ab6101c9366004610597565b5f90815260016020526040902060020154151590565b5f610257878787877f5029d7854f044632a2232dd6f1480c92403e258d8e62385ab72a08f7641c782d610252308a8a604080516001600160a01b0385166020820152908101839052606081018290525f906080016040516020818303038152906040528051906020012090509392505050565b610307565b6040805160208082018790528183018690528251808303840181526060830180855281519183019190912060c08401855288825260808401888152865160a09095019485525f8281526001808652908790209351845590519083015592516002909101558351835188815291820187905283519495509193919284927f6a1b59b65a8e7d67099d5d4a2fcf7879b07e6c34764ac12cb51fb3794ae338849281900390910190a35050505050505050565b6040805160a0810182525f80825260208201819052818301819052606082018190526080820152905163d333fa4760e01b81527f00000000000000000000000000000000000000000000000000000000000000006001600160a01b03169063d333fa479061037f908a908a908a908a906004016106b3565b602060405180830381865afa15801561039a573d5f803e3d5ffd5b505050506040513d601f19601f820116820180604052508101906103be91906106e4565b6103db5760405163ecab6b8b60e01b815260040160405180910390fd5b6103e585856104da565b80515f9081526020819052604090205490915060ff16156104245780516040516315b58f8360e01b815260048101919091526024015b60405180910390fd5b82816020015114610458576020810151604051636f3f93b360e11b815261041b918591600401918252602082015260400190565b8181606001511461048c576060810151604051630a56add960e31b815261041b918491600401918252602082015260400190565b80515f90815260208190526040808220805460ff191660011790558251905190917fdd3452229fdad8316d90d048e986f352d84de6228de6ac1fcf7347f1963e4da991a29695505050505050565b6040805160a0810182525f8082526020820181905291810182905260608101829052608081019190915260a082146105545760405162461bcd60e51b815260206004820152601d60248201527f7a6b63673a206d616c666f726d6564207075626c696320696e70757473000000604482015260640161041b565b5f808080806105658789018961070a565b6040805160a0810182529586526020860194909452928401919091526060830152608082015298975050505050505050565b5f602082840312156105a7575f80fd5b5035919050565b5f8083601f8401126105be575f80fd5b50813567ffffffffffffffff8111156105d5575f80fd5b6020830191508360208285010111156105ec575f80fd5b9250929050565b5f805f805f8060808789031215610608575f80fd5b863567ffffffffffffffff8082111561061f575f80fd5b61062b8a838b016105ae565b90985096506020890135915080821115610643575f80fd5b5061065089828a016105ae565b979a9699509760408101359660609091013595509350505050565b5f806040838503121561067c575f80fd5b50508035926020909101359150565b81835281816020850137505f828201602090810191909152601f909101601f19169091010190565b604081525f6106c660408301868861068b565b82810360208401526106d981858761068b565b979650505050505050565b5f602082840312156106f4575f80fd5b81518015158114610703575f80fd5b9392505050565b5f805f805f60a0868803121561071e575f80fd5b50508335956020850135955060408501359460608101359450608001359250905056fea264697066735822122074a35f809e9646ff5fde4eaf191959fa9cd314fe285a1367db3fa49cccc39bb164736f6c63430008140033","linkReferences":{}},"methodIdentifiers":{"approveTransfer(bytes,bytes,bytes32,bytes32)":"63c194db","approvedDecisionId(bytes32)":"91d39646","approvedTransfers(bytes32)":"58d354dd","consumedDecision(bytes32)":"aa45f910","isTransferApproved(bytes32)":"daf402df","transferKeyFor(bytes32,bytes32)":"8660ed1a","verifier()":"2b7ac3f3"},"id":1}